{
  "_format": "hh-sol-artifact-1",
  "contractName": "Contributor",
  "sourceName": "contracts/Contributior.sol",
  "abi": [
    {
      "inputs": [],
      "stateMutability": "nonpayable",
      "type": "constructor"
    },
    {
      "anonymous": false,
      "inputs": [
        {
          "indexed": true,
          "internalType": "address",
          "name": "contributor",
          "type": "address"
        }
      ],
      "name": "RemoveCid",
      "type": "event"
    },
    {
      "anonymous": false,
      "inputs": [
        {
          "indexed": true,
          "internalType": "address",
          "name": "contributor",
          "type": "address"
        },
        {
          "indexed": false,
          "internalType": "string",
          "name": "cid",
          "type": "string"
        }
      ],
      "name": "SetCid",
      "type": "event"
    },
    {
      "inputs": [
        {
          "internalType": "address",
          "name": "",
          "type": "address"
        }
      ],
      "name": "cids",
      "outputs": [
        {
          "internalType": "string",
          "name": "",
          "type": "string"
        }
      ],
      "stateMutability": "view",
      "type": "function"
    },
    {
      "inputs": [
        {
          "internalType": "address",
          "name": "_contributor",
          "type": "address"
        }
      ],
      "name": "getCid",
      "outputs": [
        {
          "internalType": "string",
          "name": "",
          "type": "string"
        }
      ],
      "stateMutability": "view",
      "type": "function"
    },
    {
      "inputs": [],
      "name": "owner",
      "outputs": [
        {
          "internalType": "address",
          "name": "",
          "type": "address"
        }
      ],
      "stateMutability": "view",
      "type": "function"
    },
    {
      "inputs": [
        {
          "internalType": "address",
          "name": "_contributor",
          "type": "address"
        }
      ],
      "name": "removeCid",
      "outputs": [],
      "stateMutability": "nonpayable",
      "type": "function"
    },
    {
      "inputs": [
        {
          "internalType": "address",
          "name": "_contributor",
          "type": "address"
        },
        {
          "internalType": "string",
          "name": "_cid",
          "type": "string"
        }
      ],
      "name": "setCid",
      "outputs": [],
      "stateMutability": "nonpayable",
      "type": "function"
    }
  ],
  "bytecode": "0x608060405234801561001057600080fd5b50336000806101000a81548173ffffffffffffffffffffffffffffffffffffffff021916908373ffffffffffffffffffffffffffffffffffffffff16021790555061097d806100606000396000f3fe608060405234801561001057600080fd5b50600436106100575760003560e01c806354d41f001461005c5780638da5cb5b1461008c578063bf14b4fe146100aa578063d3419723146100c6578063e6aa7179146100f6575b600080fd5b61007660048036038101906100719190610646565b610112565b60405161008391906107aa565b60405180910390f35b6100946101b2565b6040516100a1919061076b565b60405180910390f35b6100c460048036038101906100bf9190610673565b6101d6565b005b6100e060048036038101906100db9190610646565b610308565b6040516100ed91906107aa565b60405180910390f35b610110600480360381019061010b9190610646565b6103d9565b005b600160205280600052604060002060009150905080546101319061087c565b80601f016020809104026020016040519081016040528092919081815260200182805461015d9061087c565b80156101aa5780601f1061017f576101008083540402835291602001916101aa565b820191906000526020600020905b81548152906001019060200180831161018d57829003601f168201915b505050505081565b60008054906101000a900473ffffffffffffffffffffffffffffffffffffffff1681565b3373ffffffffffffffffffffffffffffffffffffffff1660008054906101000a900473ffffffffffffffffffffffffffffffffffffffff1673ffffffffffffffffffffffffffffffffffffffff1614610264576040517f08c379a000000000000000000000000000000000000000000000000000000000815260040161025b906107cc565b60405180910390fd5b8181600160008673ffffffffffffffffffffffffffffffffffffffff1673ffffffffffffffffffffffffffffffffffffffff16815260200190815260200160002091906102b29291906104f8565b508273ffffffffffffffffffffffffffffffffffffffff167fba6af68e8c38527814559abe40d6b01e88b80e08a03a04833d4ddb5632ea8c0183836040516102fb929190610786565b60405180910390a2505050565b6060600160008373ffffffffffffffffffffffffffffffffffffffff1673ffffffffffffffffffffffffffffffffffffffff16815260200190815260200160002080546103549061087c565b80601f01602080910402602001604051908101604052809291908181526020018280546103809061087c565b80156103cd5780601f106103a2576101008083540402835291602001916103cd565b820191906000526020600020905b8154815290600101906020018083116103b057829003601f168201915b50505050509050919050565b3373ffffffffffffffffffffffffffffffffffffffff1660008054906101000a900473ffffffffffffffffffffffffffffffffffffffff1673ffffffffffffffffffffffffffffffffffffffff1614610467576040517f08c379a000000000000000000000000000000000000000000000000000000000815260040161045e906107cc565b60405180910390fd5b600160008273ffffffffffffffffffffffffffffffffffffffff1673ffffffffffffffffffffffffffffffffffffffff16815260200190815260200160002060006104b2919061057e565b8073ffffffffffffffffffffffffffffffffffffffff167fe1e277b648596139843e3865179a3fff89eab671b4a510dcb2fea67043d65de560405160405180910390a250565b8280546105049061087c565b90600052602060002090601f016020900481019282610526576000855561056d565b82601f1061053f57803560ff191683800117855561056d565b8280016001018555821561056d579182015b8281111561056c578235825591602001919060010190610551565b5b50905061057a91906105be565b5090565b50805461058a9061087c565b6000825580601f1061059c57506105bb565b601f0160209004906000526020600020908101906105ba91906105be565b5b50565b5b808211156105d75760008160009055506001016105bf565b5090565b6000813590506105ea81610930565b92915050565b60008083601f840112610606576106056108e2565b5b8235905067ffffffffffffffff811115610623576106226108dd565b5b60208301915083600182028301111561063f5761063e6108e7565b5b9250929050565b60006020828403121561065c5761065b6108f1565b5b600061066a848285016105db565b91505092915050565b60008060006040848603121561068c5761068b6108f1565b5b600061069a868287016105db565b935050602084013567ffffffffffffffff8111156106bb576106ba6108ec565b5b6106c7868287016105f0565b92509250509250925092565b6106dc81610808565b82525050565b60006106ee83856107f7565b93506106fb83858461083a565b610704836108f6565b840190509392505050565b600061071a826107ec565b61072481856107f7565b9350610734818560208601610849565b61073d816108f6565b840191505092915050565b6000610755600c836107f7565b915061076082610907565b602082019050919050565b600060208201905061078060008301846106d3565b92915050565b600060208201905081810360008301526107a18184866106e2565b90509392505050565b600060208201905081810360008301526107c4818461070f565b905092915050565b600060208201905081810360008301526107e581610748565b9050919050565b600081519050919050565b600082825260208201905092915050565b60006108138261081a565b9050919050565b600073ffffffffffffffffffffffffffffffffffffffff82169050919050565b82818337600083830152505050565b60005b8381101561086757808201518184015260208101905061084c565b83811115610876576000848401525b50505050565b6000600282049050600182168061089457607f821691505b602082108114156108a8576108a76108ae565b5b50919050565b7f4e487b7100000000000000000000000000000000000000000000000000000000600052602260045260246000fd5b600080fd5b600080fd5b600080fd5b600080fd5b600080fd5b6000601f19601f8301169050919050565b7f556e617574686f72697a65640000000000000000000000000000000000000000600082015250565b61093981610808565b811461094457600080fd5b5056fea26469706673582212206c77308585678e9fb2b7e252ece670cf80ffa657314a76f77fa55015fcf6a49764736f6c63430008070033",
  "linkReferences": {},
  "deployedLinkReferences": {}
}